:020000040800F2
:10000000B00A002089010008E9170008F11600086D
:10001000E517000835130008B92F0008000000009C
:10002000000000000000000000000000092100089E
:100030003913000800000000F51E0008FD2200082A
:10004000A3010008A3010008A3010008A301000800
:10005000A3010008A3010008A3010008A3010008F0
:10006000A3010008A3010008A3010008A3010008E0
:10007000A3010008A3010008A3010008A3010008D0
:10008000A3010008A3010008A3010008A3010008C0
:10009000A3010008A3010008A3010008A3010008B0
:1000A000A3010008A3010008A3010008A3010008A0
:1000B000A30100086123000885230008A3010008AC
:1000C000A3010008A3010008A3010008A301000880
:1000D000A30100082D280008A3010008B92A000880
:1000E000A3010008A3010008A301000800F002F822
:1000F00000F03AF80AA090E8000C82448344AAF188
:100100000107DA4501D100F02FF8AFF2090EBAE885
:100110000F0013F0010F18BFFB1A43F0010318473B
:1001200088620000A8620000103A24BF78C878C135
:10013000FAD8520724BF30C830C144BF04680C60ED
:10014000704700000023002400250026103A28BF35
:1001500078C1FBD8520728BF30C148BF0B60704739
:100160001FB51FBD10B510BD00F036F81146FFF7E2
:10017000F7FF02F041FF00F054F803B4FFF7F2FF7D
:1001800003BC00F057F800000948804709480047C1
:10019000FEE7FEE7FEE7FEE7FEE7FEE7FEE7FEE737
:1001A000FEE7FEE704480549054A064B7047000094
:1001B00001230008ED000008B0040020B00A002070
:1001C000B0060020B006002070477047704700005E
:1001D00000487047500400207546FFF7F9FFAE460F
:1001E00005006946534620F00700854618B020B543
:1001F000FFF7D8FFBDE820404FF000064FF00007A2
:100200004FF000084FF0000B21F00701AC46ACE8BE
:10021000C009ACE8C009ACE8C009ACE8C0098D462B
:10022000704710B50446AFF300802046BDE810408B
:10023000FFF7A3BF01491820ABBEFEE7260002006E
:10024000704721B1826842F00102826003E0826857
:1002500022F0010282607047014600208A6802F0A5
:1002600004020AB1012000E0002070470146C86C7A
:1002700080B270470246002013680B400BB101208A
:1002800000E000207047014600208A6802F0080262
:100290000AB1012000E000207047000030B502469E
:1002A0000020002350680F4C20400D790C6844EA70
:1002B00005242043506090680B4C2040D1E9025443
:1002C0002C434D7944EA450420439060D06A20F4E1
:1002D00070000C7C641EE4B2234340EA0350D062F9
:1002E00030BD0000FFFEF0FFFDF7F1FFF0B5044662
:1002F0000D4600200021092D11DDE068A5F10A0658
:1003000006EB4607072606FA07F18843A5F10A0619
:1003100006EB460603FA06F10843E0600CE02069AC
:1003200005EB4507072606FA07F1884305EB450666
:1003300003FA06F108432061072A0FDA606B561EA4
:1003400006EB86071F2606FA07F18843561E06EBC2
:10035000860605FA06F10843606322E00D2A0FDAEB
:10036000206BD61F06EB86071F2606FA07F1884387
:10037000D61F06EB860605FA06F10843206310E057
:10038000E06AA2F10D0606EB86071F2606FA07F1C2
:100390008843A2F10D0606EB860605FA06F108432E
:1003A000E062F0BD816841F008018160704721B1D1
:1003B000826842F4A002826003E0826822F4A00214
:1003C00082607047816841F00401816070470000DD
:1003D00000B587B00121480201F01CFE0121042074
:1003E00001F018FE4FF4004001F0F8FD00208DF8F8
:1003F0001B001020ADF8180003208DF81A0006A984
:10040000194801F063F80523012204211748FFF77A
:100410006DFF002004904FF46020039000200190B5
:1004200001208DF8140000208DF809008DF80800D7
:1004300001A90E48FFF732FF01210C48FFF701FF29
:100440000A48FFF7AFFF00BF0848FFF71CFF01286D
:10045000FAD00648FFF7B6FF00BF0448FFF7FCFEDE
:100460000128FAD007B000BD000801400024014077
:1004700070B50425284801F089FE284801F0A4FE43
:10048000502000F05AFF264801F040FE35E0254894
:1004900000880D2800D035E000240FE021480088B6
:1004A0000D2800D00CE0204603F064FB064601F066
:1004B0004BFE1D48008800F040FF641C2D2CEDDD34
:1004C00000BF2D240FE0174800880D2800D00CE055
:1004D000204603F04FFB064601F036FE1248008826
:1004E00000F02BFF641E002CEDDC00BF0D480088DF
:1004F0000D2800D006E0681E85B21DB109480088AD
:100500000D28C4D000BF074800880D2802D1022062
:100510000449088070BD00000000A0410000344282
:100520000000B442260000202A00002010B51C481C
:100530000088D0B91B4801F047FE1B4801F0E6FDDA
:100540001A48008800F0F9FE164801F01FFE164810
:1005500001F0FAFD1548008800F0EFFE0C20144968
:10056000088001200E49088019E00E4801F00EFEB7
:100570000D4801F0E9FD0D48008800F0DEFE094855
:1005800001F022FE084801F0C1FD0848008800F093
:10059000D4FE0C200649088000200149088010BDC7
:1005A0002400002000000C4200000C432800002022
:1005B0002600002010B51D480088D8B91C4801F05D
:1005C000A5FD1C4801F000FE1B48008800F0B5FEA8
:1005D000174801F0B9FD174801F0D8FD164800880A
:1005E000503000F0AAFE02201449088001200F4973
:1005F00008801AE00E4801F0A7FD0E4801F0C6FD84
:100600000D48008800F099FE094801F07FFD094877
:1006100001F0DAFD08480088503000F08EFE02201C
:100620000649088000200149088010BD22000020F2
:1006300000000C4300000C4228000020260000208F
:1006400010B57BE003204049088008460088C01CA4
:1006500008805DE03D480088062800D062E03C4804
:1006600001F054FD3B4801F06FFD394801F08EFD6B
:10067000384801F0A9FD3848008800F05EFE334894
:100680000088062800D04DE0314801F03FFD304899
:1006900001F05AFD2E4801F079FD2D4801F094FD3E
:1006A0002D48008800F049FE28480088062800D020
:1006B00038E0284801F02AFD254801F045FD25488D
:1006C00001F064FD224801F07FFD2348008800F01E
:1006D00034FE1E480088062800D023E01D4801F0A3
:1006E00015FD1C4801F030FD1A4801F04FFD194876
:1006F00001F06AFD1848008800F01FFE13480088CA
:10070000062800D00EE010480088401E0E490880E0
:100710000D48008810B91148008818B10B480088AE
:10072000062897D000BF0D480088012806D007484A
:100730000088062802D10220044908800348008866
:1007400006283FF47FAF10BD2000002026000020C7
:10075000000002430000B4422800002032000020C4
:100760002DE9F04101260324A7E0574801F0CEFC13
:10077000564801F0E9FC3C2000F0DFFD544801F050
:1007800023FD5A250EE0534800880F2800D00BE0C7
:10079000284603F0EFF9074601F0F8FC062000F0C8
:1007A000CCFD6D1CB42DEEDB00BF14E0B4250EE0D3
:1007B000484800880F2800D00BE0284603F0DAF9FB
:1007C000074601F0E3FC0F2000F0B7FD6D1E962DEB
:1007D000EEDC00BF641E1CB13E4800880F28E5D047
:1007E0003C4800880F2800D06AE0642000F0A5FD96
:1007F000354801F08BFC344801F0A6FC35480088F0
:100800000F2800D05CE0502000F097FD2E4801F04A
:10081000BDFC2D4801F0D8FC642000F08EFD2D4871
:1008200000880F2800D04BE00324274801F08CFCFF
:10083000264801F06BFC274800880F2800D03FE0D5
:100840003C2000F07AFD224801F0A0FC5A250EE081
:10085000204800880F2800D00BE0284603F08AF9D2
:10086000074601F0B1FC062000F067FD6D1CB42DB9
:10087000EEDB00BF14E0B4250EE0164800880F2818
:1008800000D00BE0284603F075F9074601F09CFC08
:100890000F2000F052FD6D1E962DEEDC00BF641E91
:1008A0001CB10C4800880F28E5D00A4800880F28A2
:1008B00002D10220074908800026002E7FF455AFA0
:1008C00000BFBDE8F08100000000B4420000A0417C
:1008D0000000DC422600002010B57BE003204049E8
:1008E000088008460088C01C08805DE03D480088FC
:1008F000072800D062E03C4801F008FC3B4801F0CA
:1009000023FC394801F042FC384801F05DFC3848CE
:10091000008800F012FD33480088072800D04DE021
:10092000324801F0F3FB314801F00EFC2F4801F092
:100930002DFC2E4801F048FC2D48008800F0FDFCFD
:1009400028480088072800D038E0284801F0DEFB5E
:10095000254801F0F9FB254801F018FC224801F078
:1009600033FC2348008800F0E8FC1E480088072874
:1009700000D023E01C4801F0C9FB1B4801F0E4FB58
:10098000194801F003FC184801F01EFC18480088C3
:1009900000F0D3FC13480088072800D00EE0104870
:1009A0000088401E0E4908800D48008810B9114883
:1009B000008818B10B480088072897D000BF0D4861
:1009C0000088012806D007480088072802D10220A5
:1009D000044908800348008807283FF47FAF10BD12
:1009E00020000020260000200000B4420000024346
:1009F000280000203200002070B503255BE01E2493
:100A000022E0204603F0CEF8064601F07FFB2046A8
:100A100003F0C8F8064601F097FB204603F0C2F841
:100A2000064601F0B3FB204603F0BCF8064601F091
:100A3000CBFB3C48008800F080FC3B48008808283D
:100A400000D003E0601CC4B2962CDADB00BF36484D
:100A50000088082800D033E0962422E0204603F0E6
:100A6000A1F8064601F052FB204603F09BF806462B
:100A700001F06AFB204603F095F8064601F086FB7C
:100A8000204603F08FF8064601F09EFB25480088BB
:100A900000F053FC24480088082800D003E0601EC2
:100AA000C4B21E2CDADC00BF1F480088082800D022
:100AB00006E0681E85B21DB11B48008808289ED03C
:100AC00000BF1E2422E0204603F06CF8064601F029
:100AD0001DFB204603F066F8064601F035FB204674
:100AE00003F060F8064601F051FB204603F05AF887
:100AF000064601F069FB0B48008800F01EFC0A481E
:100B00000088082800D003E0601CC4B25A2CDADB4D
:100B100000BF05480088082802D102200249088049
:100B200070BD00002A0000202600002070B53C2087
:100B300000F003FC4EE02C48007828B32B480478E2
:100B400017E02A480470204603F02CF8054602F00E
:100B500035FA2748008800F0F0FB26480078012885
:100B600000D008E024480088092800D003E0601C79
:100B7000C4B2962CE5DB00BF00201B4908701E485C
:100B80000088092826D029E01848047817E017487B
:100B90000470204603F006F8054602F00FFA1448E8
:100BA000008800F0CAFB13480078012800D008E054
:100BB00011480088092800D003E0601EC4B21E2C32
:100BC000E5DC00BF0120084908700B4800880928AF
:100BD00000D003E0074800780028ACD100BF3C20DB
:100BE00000F0ABFB70BD0000300000202F000020A3
:100BF0002A0000202E0000202600002010B5E7E08B
:100C0000032076490880CCE0754801F07FFA7548EA
:100C100001F09AFA744801F0B9FA724801F0D4FA76
:100C20007248008800F089FB71480088042803D1CD
:100C3000704800880A2800DCBEE0694801F066FAC6
:100C4000694801F081FA684801F0A0FA644801F0AF
:100C5000BBFA6648008800F070FB654800880428ED
:100C600003D1644800880A2800DCA5E05D4801F053
:100C70004DFA5D4801F068FA5A4801F087FA584881
:100C800001F0A2FA5948008800F057FB5848008844
:100C9000042803D1574800880A2800DC8CE051481A
:100CA00001F034FA4F4801F04FFA4E4801F06EFA65
:100CB0004C4801F089FA4D48008800F03EFB4C4852
:100CC0000088042803D14B4800880A2800DC73E020
:100CD000444801F01BFA424801F036FA414801F05D
:100CE00055FA414801F070FA4048008800F025FBB1
:100CF0003F480088042803D13E4800880A2800DCC9
:100D00005AE0394801F002FA354801F01DFA34483A
:100D100001F03CFA344801F057FA3448008800F0FA
:100D20000CFB33480088042803D1324800880A2885
:100D300000DC41E02C4801F0E9F92A4801F004FA0E
:100D4000274801F023FA274801F03EFA2748008897
:100D500000F0F3FA26480088042803D125480088CB
:100D60000A2800DC28E01F4801F0EEF91D4801F0D8
:100D70000DFA1C4801F0CAF91A4801F025FA1B487F
:100D8000008800F0DAFA1A480088042803D11948CC
:100D900000880A2800DC0FE010480088401E0F4938
:100DA00008800E48008810B91348008820B1104808
:100DB000008804283FF428AF00BF0F4800880128AE
:100DC00006D00B480088042802D102200849088078
:100DD0000748008804283FF413AF10BD200000200E
:100DE000000002430000B4420000484228000020F6
:100DF00026000020160000203200002010B5CCE0B4
:100E0000032069490880B1E068480088052800D0BF
:100E1000B7E0674801F098F9654801F0B7F9644810
:100E200001F074F9624801F0CFF96248008800F0DF
:100E300084FA5E480088052800D0A2E05E4801F0F0
:100E400065F95B4801F080F95C4801F09FF958486A
:100E500001F0BAF95748008800F06FFA534800884B
:100E6000052800D08DE0544801F050F9534801F0B6
:100E70006BF9524801F08AF94F4801F0A5F94D4845
:100E8000008800F05AFA49480088052800D078E028
:100E9000474801F03BF9494801F056F9444801F050
:100EA00075F9454801F090F94248008800F045FA8C
:100EB0003E480088052800D063E03D4801F026F94F
:100EC0003B4801F041F93A4801F060F9384801F037
:100ED0007BF93848008800F030FA3448008805284B
:100EE00000D04EE0324801F011F9334801F02CF9FE
:100EF0002F4801F04BF9314801F066F92D48008880
:100F000000F01BFA29480088052800D039E02B485A
:100F100001F0FCF8284801F017F9274801F036F9EC
:100F2000264801F051F92348008800F006FA1F48CE
:100F30000088052800D024E0204801F0E7F81C488C
:100F400001F002F91C4801F021F9194801F03CF9BF
:100F50001848008800F0F1F914480088052800D0EE
:100F60000FE011480088401E0F4908800E48008895
:100F700010B91348008820B10C48008805283FF4B8
:100F800043AF00BF0E480088012806D007480088FC
:100F9000052802D102200549088004480088052858
:100FA0003FF42EAF10BD00002000002026000020DE
:100FB0000000B44228000020000048420000024324
:100FC0003200002010B5094801F0A0F8074801F0F0
:100FD000BBF8502000F0B1F9044801F0D7F80348FD
:100FE00001F0F2F809200249088010BD0000A0417C
:100FF0002600002010B5094801F088F8074801F0E4
:10100000A3F8502000F099F9054801F0BFF8044812
:1010100001F0DAF809200349088010BD0000A04162
:10102000000020432600002010B5094801F06EF8AA
:10103000074801F089F8502000F07FF9054801F0D9
:10104000A5F8044801F0C0F809200349088010BD44
:101050000000B4420000A0412600002070B53C48CA
:1010600001F094F83A4801F0AFF8502000F065F92B
:101070005A2414E0204602F07DFD054601F046F8B2
:10108000204602F077FD054601F05EF83148008801
:101090000E2800D005E00F2000F04FF9641E0A2C46
:1010A000E8DC00BF0A2414E0204602F063FD054698
:1010B00001F02CF8204602F05DFD054601F044F8F1
:1010C000244800880E2800D005E00F2000F035F9F4
:1010D000641C5A2CE8DB00BF5A2414E0204602F0BE
:1010E00049FD054601F052F8204602F043FD054651
:1010F00001F06AF8174800880E2800D005E00F209C
:1011000000F01BF9641CAA2CE8DB00BFAA2414E041
:10111000204602F02FFD054601F038F8204602F087
:1011200029FD054601F050F80A4800880E2800D035
:1011300005E00F2000F001F9641E5A2CE8DC00BF26
:10114000044800880E2802D10F200249088070BD93
:101150000000B4422600002010B5094800F0D6FF78
:10116000074800F0F1FF502000F0E7F8044801F0D4
:101170000DF8034801F028F809200249088010BD45
:101180000000B4422600002010B5094800F0FEFF20
:10119000074801F019F8502000F0CFF8044800F09B
:1011A000B5FF034800F0D0FF09200249088010BDB8
:1011B0000000B4422600002010B501F097FE074958
:1011C0000880084600880A2807DC052004490880B2
:1011D00004480068401C0349086010BD1600002048
:1011E000260000204C00002000B587B0012104201B
:1011F00000F010FF0121880300F00CFF01210820FE
:1012000000F008FF0121880400F0F4FE18208DF89A
:101210001B004FF40070ADF8180003208DF81A0081
:1012200006A9404800F052F948208DF81B004FF401
:101230008060ADF8180003208DF81A0006A939481F
:1012400000F044F918208DF81B004FF48060ADF8D1
:10125000180003208DF81A0006A9334800F036F96B
:1012600048208DF81B004FF40060ADF818000320F3
:101270008DF81A0006A92C4800F028F94FF41650F2
:1012800002900020ADF814000C20ADF812000020F0
:10129000ADF81000ADF80E00ADF80C0002A923481F
:1012A00001F0B2FD4FF4E130029002A9204801F0B4
:1012B000ABFD012240F225511C4801F080FD0122C6
:1012C00040F225511A4801F07AFD4FF4A06000F079
:1012D000C5FA25208DF8040001208DF807000220B2
:1012E0008DF8050001208DF8060001A800F07EFAB7
:1012F00027208DF8040001208DF8070002208DF8CA
:10130000050001208DF8060001A800F06FFA012108
:10131000064801F01EFD0121054801F01AFD07B045
:1013200000BD000000080140000C014000380140F1
:101330000048004000BFFEE7704700B5034603E0E9
:101340004FF47A7000F005F8181EA3F10103F7D1ED
:1013500000BD00EBC001C9004FF0E0225161002147
:1013600091610521116100BF4FF0E021096901F48D
:1013700080310029F8D004214FF0E022116170473C
:1013800008B543480088072852D2DFE800F0040F70
:101390001A25303B460000F06BFA3E48402380227D
:1013A00000210090084600F0BBFB41E000F060FA2D
:1013B00039484023802200210090084600F0B0FB0D
:1013C00036E000F055FA3548402380220021009095
:1013D000084600F0A5FB2BE000F04AFA3048402315
:1013E000802200210090084600F09AFB20E000F0E7
:1013F0003FFA2C484023802200210090084600F04C
:101400008FFB15E000F034FA2748402380220021AA
:101410000090084600F084FB0AE000F029FA234817
:101420004023802200210090084600F079FB00BF95
:1014300000BF1F48007838B306231EA200210846CB
:1014400000F012FC1D4800886E2806DB06231CA253
:101450000021242000F008FC16E0184800886428C9
:1014600009DB062003230090144802880021242071
:1014700000F0D4FB08E00620022300900F48028809
:101480000021242000F0CAFB00F006FC08BD00008B
:101490002C000020A8570008A85B0008A84F0008EF
:1014A000A8530008A85F0008A84B0008A847000838
:1014B0004B000020506F7765723A00004800002012
:1014C0004368617267696E67000000002DE9F041B2
:1014D000024600250026002000230024002791F862
:1014E00003C00CF00F0591F803C00CF0100CBCF118
:1014F000000F03D091F802C04CEA050591F800C036
:10150000BCF1000F31D0146800202BE04FF0010C2B
:101510000CFA00F3B1F800C00CEA03069E4220D199
:1015200083004FF00F0C0CFA03F7BC4305FA03FCE1
:101530004CEA040491F803C0BCF1280F06D14FF027
:10154000010C0CFA00FCC2F814C00AE091F803C0C8
:10155000BCF1480F05D14FF0010C0CFA00FCC2F8A9
:1015600010C0401C0828D1D31460B1F800C0BCF1F1
:10157000FF0F34DD546800202EE000F1080C4FF01E
:10158000010808FA0CF3B1F800C00CEA03069E4209
:1015900021D183004FF00F0C0CFA03F7BC4305FA7E
:1015A00003FC4CEA040491F803C0BCF1280F05D1F8
:1015B00000F1080C08FA0CF8C2F8148091F803C086
:1015C000BCF1480F07D100F1080C4FF0010808FAF0
:1015D0000CF8C2F81080401C0828CED35460BDE837
:1015E000F0810246002093680B400BB1012000E01F
:1015F0000020704741617047016170470AB1016185
:1016000000E04161704700002DE9FF5F00F05EF8E7
:10161000019001F070FF80464FF066320F4B01F0F1
:101620007DFF064600220E4B01F0E0FD00220D4B2F
:10163000CDE9020101F072FF044600220A4B02F0DC
:101640006BF8824601F0F8FC08490860084600681B
:1016500002F070FA80B204B0BDE8F09F66662A40DE
:101660000000B0400000594000C07240400000201F
:1016700010B5FEF7ADFE10BD10B510480078401C47
:10168000C0B20E49087064280ADCFFF7BDFF0C49A0
:1016900008800C480088098808440A4908800BE043
:1016A00008480088642190FBF1F007490880002079
:1016B000044908800149087010BD00004A0000205C
:1016C00044000020460000204800002010B5012101
:1016D0000648FEF76CFE00BF02210448FEF7CAFD73
:1016E0000028F9D00148FEF7C1FD10BD00240140DB
:1016F00000BFFEE710B53648008801280BD13548F9
:10170000008840B944F6206000F0B6FB44F6206043
:1017100000F0BCFB5AE02E48008801284DD12D482E
:101720000088012849D12C480088012816D12B486F
:1017300000886430294908800846008800F09CFB36
:101740002648008800F0A2FB2448008844F6206167
:1017500088423BD102202049088037E01E4800889B
:10176000022813D11D48008864381C4908800846A7
:10177000008800F081FB1948008800F087FB1748BB
:10178000008818BB0320144908801FE01248008815
:1017900003281BD11248008800F57A701049088090
:1017A0000846008844F6206188420FD101200A498A
:1017B000088000200A49088008E00548008828B908
:1017C000002000F059FB002000F060FB10BD00007D
:1017D0003A0000203C0000203600002034000020A9
:1017E0003800002000BFFEE77047000070B5002100
:1017F00000230F22C47804B3154C246804F4E06479
:10180000C4F5E064210AC1F10403CA40447804FA33
:1018100003F184781440214309010E4C0678A15548
:10182000047804F01F050124AC4005786D11AD006B
:1018300005F1E025C5F8004109E0047804F01F0532
:101840000124AC40044D0678761145F8264070BD61
:101850000CED00E000E400E080E100E0024901431B
:10186000024A1160704700000000FA050CED00E02C
:1018700000200CE0002106E00022064B03EBC01321
:101880005A544A1CD1B28029F6DB421CD0B2082837
:10189000F0DB7047500000202DE9F04304460D4670
:1018A00016461F46284638E0224631E0002A2DDB46
:1018B0007F2A2BDC002829DB3F2827DC4FEAE07C4D
:1018C00000EB5C7C4FEAEC0CDFF8588008EBCC1C9A
:1018D0001CF802C003464FEAE07800EB58784FEA64
:1018E000E808A0EBC8094FF0010808FA09F82CEA4B
:1018F000080C01464FEAE07800EB58784FEAE80818
:10190000DFF8209009EBC81808F802C0511C0AB291
:10191000A1199142CADC411C08B2E9198142C3DC19
:10192000BDE8F0835000002038B5002406E0002513
:1019300000E06D1CB5F57A7FFBD3641CB4F57A7FAB
:10194000F5D30121082000F065FB14208DF8030079
:1019500003208DF802004FF48070ADF80000694656
:101960000848FFF7B3FD4FF40070ADF8000069467A
:101970000448FFF7ABFD012000F0A2F9012000F0C0
:10198000ABF938BD000C014070B50546002411E0EC
:1019900080212141294009B1012100E000210846B0
:1019A00000F09AF9012000F08BF9002000F088F98E
:1019B000601CC4B2082CEBDB012000F081F9002090
:1019C00000F07EF970BD10B5012000F085F901200E
:1019D00000F076F9002000F07FF9002000F070F9A7
:1019E00010BD10B5002000F077F9012000F068F973
:1019F000012000F071F910BD10B5FFF795FFAE2082
:101A000000F076F9D52000F073F9802000F070F92D
:101A1000A82000F06DF93F2000F06AF9D32000F013
:101A200067F9002000F064F9402000F061F9A1207E
:101A300000F05EF9C82000F05BF9DA2000F058F9F8
:101A4000122000F055F9812000F052F9CF2000F06B
:101A50004FF9D92000F04CF9F12000F049F9DB20D2
:101A600000F046F9302000F043F9A42000F040F9DE
:101A7000A62000F03DF98D2000F03AF9142000F086
:101A800037F9AF2000F034F9FFF7F2FE00F004F967
:101A900010BD10B50246012000E050430B1EA1F11D
:101AA0000101FAD110BD70B505460C46A01CC4B2A8
:101AB00045F0B00000F01CF9102141EA141000F0CC
:101AC00017F904F00F0000F013F970BDF8B50646E1
:101AD0000F4614461D46082D0CD1A4F120000E49D6
:101AE00001EB00101023082239460090304600F028
:101AF00017F80FE0062D0DD1A4F1200000EB4000F7
:101B0000064901EB40000823062239460090304682
:101B100000F006F8F8BD0000623E000852440008DC
:101B20002DE9FF4F80460E469146DDF834B0002582
:101B300000244A4631464046039BFFF7ADFE00BFF6
:101B40005EE0002558E008EB0500002852DB08EBBA
:101B500005007F284EDC3046F11706EB5171C910A5
:101B60000FB2F11706EB5171C910A6EBC10A002E96
:101B700005DA781E07B20AF108000FFA80FA381960
:101B8000002817DB3819072814DC3819224901EB23
:101B9000C01008EB0501405C04FB09511BF8011063
:101BA00001FA0AF1084339191B4A02EBC11108EB8B
:101BB000050288543819401C00281BDB3819401CCA
:101BC000072817DC3819401C134901EBC01008EB3B
:101BD0000501405C04FB09511BF80110CAF1080221
:101BE000114108433919491C0B4A02EBC11108EB9A
:101BF00005028854681CC5B24D45A4DB601CC4B204
:101C00000399481EC11700EB5171012202EBE1015B
:101C1000A14296DCBDE8FF8F500000202DE9F0477F
:101C20000646894617461D46DDF82080002417E049
:101C3000281B411E0A20FFF72CFFB7FBF0F00A21FA
:101C4000B0FBF1F201FB120000F1300A04FB086165
:101C500008B2434652464946FFF738FF601CC4B2FB
:101C6000AC42E5DBBDE8F0872DE9F0410646884649
:101C700015461F46002409E02A5D04FB076108B2EF
:101C80003B464146FFF722FF601CC4B2285D002896
:101C9000F2D1BDE8F081000010B500240BE0002176
:101CA0002046FFF700FF054901EBC410802100F03A
:101CB0002FF8601CC4B2082CF1DB10BD50000020CE
:101CC00010B5044622464FF480710248FFF796FC97
:101CD00010BD0000000C014010B5044622464FF430
:101CE00000710248FFF78AFC10BD0000000C0140A3
:101CF00010B50446FFF767FE7820FFF745FE002089
:101D0000FFF742FE2046FFF73FFEFFF76AFE10BDD9
:101D100070B505460E46FFF756FE7820FFF734FEF5
:101D20004020FFF731FE002404E0285DFFF72CFE81
:101D3000601CC4B2B442F8DBFFF753FE70BD000074
:101D400000B589B00121084600F054F901210220B4
:101D500000F050F90121042000F05CF90121082075
:101D600000F058F918208DF823004F20ADF820001E
:101D700003208DF8220008A93C48FFF7A7FB182094
:101D80008DF823000320ADF820008DF8220008A96B
:101D90003748FFF79BFB4FF0804000F059FB354878
:101DA00000F056FB0020ADF81A00ADF8160044F61E
:101DB0001F60ADF818004720ADF8140000208DF822
:101DC0001C0005A94FF0804000F088FC05A92948B7
:101DD00000F084FC1D208DF8100001208DF8130008
:101DE00000208DF811008DF8120004A8FFF7FEFC0A
:101DF000012211461F4800F022FB684600F05AFC01
:101E00006020ADF800000020ADF808000120ADF81A
:101E100002000020ADF8060069464FF0804000F057
:101E20001DFB69464FF0804000F064FB69464FF0AF
:101E3000804000F0B1FB69464FF0804000F0FCFBB1
:101E400069460C4800F00AFB69460A4800F0A4FB0A
:101E50006946084800F0F0FB0121880700F0D2FA3B
:101E60000121044800F0CEFA09B000BD000801408D
:101E7000000C01400004004010B504462146024811
:101E800000F026FC10BD00000004004010B5044620
:101E90002146024800F01EFC10BD00000004004076
:101EA00010B5044621464FF0804000F00DFC10BDF7
:101EB00010B5044621464FF0804000F007FC10BDED
:101EC00010B5044621464FF0804000F001FC10BDE3
:101ED00010B5044621464FF0804000F0FBFB10BDDA
:101EE00010B504462146024800F0EEFB10BD00008C
:101EF000000400407047000010B53748008810B952
:101F0000FFF778F867E034480088012802D1FFF72E
:101F10008BF860E030480088022802D1FFF71CF9F6
:101F200059E02D480088032802D1FFF74BF852E012
:101F300029480088042802D1FEF760FE4BE02648BD
:101F40000088052802D1FEF759FF44E022480088A6
:101F5000062802D1FEF774FB3DE01F4800880728E1
:101F600002D1FEF7B9FC36E01B480088082802D1F0
:101F7000FEF742FD2FE018480088092802D1FEF73D
:101F8000D5FD28E0144800880A2802D1FEF712FB8C
:101F900021E0114800880B2802D1FEF7C7FA1AE0A9
:101FA0000D4800880C2802D1FFF7EEF813E00A482C
:101FB00000880D2802D1FEF75BFA0CE00648008885
:101FC0000E2802D1FFF74AF805E0034800880F28E1
:101FD00001D1FEF7C5FB10BD260000200146002000
:101FE000034A506820F440400843506070470000A6
:101FF0000010024029B1064AD2690243044BDA615B
:1020000004E0034AD2698243014BDA617047000061
:102010000010024029B1064A92690243044B9A61BA
:1020200004E0034A92698243014B9A6170470000C1
:102030000010024030B500210022002400232D4D65
:102040006D6805F00C0121B1042905D0082923D1C0
:1020500005E0294D056022E0274D05601FE0254D74
:102060006D6805F47012234D6D6805F48034022507
:1020700005EB92421CB9214D554305600BE01D4D07
:102080006D6805F400351DB11C4D5543056002E037
:10209000194D5543056002E0174D056000BF00BFB4
:1020A000144D6D6805F0F0010909154D6B5C05686C
:1020B000DD4045600F4D6D6805F4E061090A104D83
:1020C0006B5C4568DD4085600A4D6D6805F46051C4
:1020D000C90A0B4D6B5C4568DD40C560054D6D68F8
:1020E00005F44041890B074D6B5CC568B5FBF3F502
:1020F000056130BD0010024000127A0000093D0069
:102100000000002010000020704700002DE9F04181
:1021100004460A49204601F04BFC8046084901F07C
:1021200055FD0746074901F0E1FB064601F002FDB7
:1021300085B22846FFF7B4FEBDE8F08100003443C5
:102140000000FA440000FA432DE9F04704460C4928
:10215000204601F007FE8146094901F029FC80462E
:10216000084901F033FD0746074901F0BFFB064669
:1021700001F0E0FC85B22846FFF79AFEBDE8F08743
:10218000000034430000FA440000FA432DE9F04116
:1021900004460A49204601F00BFC8046084901F03C
:1021A00015FD0746074901F0A1FB064601F0C2FCF8
:1021B00085B22846FFF784FEBDE8F0810000344375
:1021C0000000FA440000FA432DE9F04704460C49A8
:1021D000204601F0C7FD8146094901F0E9FB804630
:1021E000084901F0F3FC0746074901F07FFB06466A
:1021F00001F0A0FC85B22846FFF76AFEBDE8F08733
:10220000000034430000FA440000FA4310B5FFF721
:1022100097FD10BD10B500F001F810BD0CB5002001
:10222000019000903348006840F4803031490860E4
:1022300000BF3048006800F4003000900198401C56
:102240000190009818B90198B0F5A06FF1D1294814
:10225000006800F4003010B10120009001E000207F
:1022600000900098012843D12348006840F01000F6
:10227000214908600846006820F00300086008460D
:10228000006840F0020008601A4840681949486038
:102290000846406848600846406840F480604860EE
:1022A0000846406820F47C1048600846406840F4C6
:1022B000E81048600846006840F08070086000BF81
:1022C0000C48006800F000700028F9D00948406808
:1022D00020F00300074948600846406840F00200CB
:1022E000486000BF0348406800F00C000828F9D19E
:1022F0000CBD0000001002400020024070470000AA
:1023000010B51348006840F0010011490860084604
:102310004068104908400E494860084600680E4968
:1023200008400B4908600846006820F480200860D7
:102330000846406820F4FE0048604FF41F008860A3
:10234000FFF768FF4FF000600449086010BD00000F
:10235000001002400000FFF8FFFFF6FE08ED00E06D
:1023600010B50121064800F059F8012807D1FFF700
:1023700083F9FFF7BFF90121014800F040F810BDD3
:102380000004004010B50121144800F047F801286E
:1023900023D11348008801F005FC124908604FF46E
:1023A00080511148FFF71DF9104908704FF4005192
:1023B0000D48FFF716F90E4908704FF400510A480E
:1023C000FFF70FF9012804D10A480088401C094989
:1023D00008800121014800F012F810BD00080040FB
:1023E000160000201C000020000C014019000020F5
:1023F0001800002014000020CA4302827047CA431C
:102400000282704721B1028842F00102028004E09A
:1024100002884FF6FE731A400280704730B50246BC
:10242000002000230024158A05EA0103958905EAA6
:10243000010413B10CB1012000E0002030BD1AB13D
:1024400083890B43838102E083898B4383817047B7
:1024500001894FF6F87211400181704770B5002470
:1024600000220023058C4FF6FE7635400584028C51
:102470008388048B4FF68F752C40B51E2C400D8839
:102480002C43751E2A400D892A434D882A43144D3A
:10249000A8420BD0134DA84208D0134DA84205D036
:1024A000124DA84202D0124DA84213D14FF6F77533
:1024B0002A404D892A434FF6FB752A408D882A43CE
:1024C0004FF6FF652B404FF6FF552B408D892B4370
:1024D000CD892B4383800483CD888586028470BD9B
:1024E000002C014000340140004001400044014004
:1024F0000048014070B5002400220023058C4FF6EF
:10250000EF7635400584028C8388048B48F6FF758E
:102510002C404FF6FF452C400D884FF6FF7606EA1B
:1025200005252C434FF6DF752A400D8906EA05156F
:102530002A434D8806EA05152A43154DA84202D0C4
:10254000144DA8421DD14FF67F752A404D894FF694
:10255000FF7606EA05152A434FF6BF752A408D8897
:1025600006EA05152A434FF6FF352B404FF2FF755B
:102570002B408D8906EA85052B43CD8906EA850522
:102580002B4383800483CD880587028470BD0000BF
:10259000002C01400034014070B5002400220023CB
:1025A000058C4FF6FF6635400584028C8388848B4A
:1025B0004FF68F752C404FF6FC752C400D882C4340
:1025C0004FF6FF552A400D894FF6FF7606EA05259E
:1025D0002A434D8806EA05252A43154DA84202D014
:1025E000144DA8421DD14FF2FF752A404D894FF678
:1025F000FF7606EA05252A434FF6FF352A408D88E7
:1026000006EA05252A434EF6FF752B404DF6FF7569
:102610002B408D8906EA05152B43CD8906EA051561
:102620002B4383808483CD888587028470BD00001E
:10263000002C01400034014070B50022002300242A
:10264000058C4EF6FF7635400584038C8488828B9A
:1026500048F6FF752A404FF6FF452A400D884FF691
:10266000FF7606EA05252A434DF6FF752B400D89B6
:1026700006EA05352B434D8806EA05352B430B4DFD
:10268000A84202D00A4DA84208D14BF6FF752C4053
:102690008D894FF6FF7606EA85152C438480828368
:1026A000CD88A0F84050038470BD0000002C01408C
:1026B000003401400021018041808180C18001817E
:1026C00041818181C1817047818670470187704750
:1026D00081877047A0F840107047000000220288F0
:1026E0001D4B98420ED01D4B98420BD0B0F1804F3D
:1026F00008D01B4B984205D01A4B984202D01A4B77
:10270000984204D14FF68F731A404B881A43174BE7
:10271000984207D0164B984204D04FF6FF431A4018
:10272000CB881A4302808B8883850B8803850A4BEC
:1027300098420BD0094B984208D00E4B984205D0D6
:102740000D4B984202D00D4B984201D10B7A038673
:102750000123838270470000002C014000340140B7
:102760000004004000080040000C00400010004041
:102770000014004000400140004401400048014076
:1027800000B585B001210820FFF744FC4FF400504C
:10279000ADF8100004208DF8130003208DF812000E
:1027A00004A91F48FEF792FE00201E49088001215F
:1027B0000420FFF71FFC1C48FFF74AFE0020ADF87D
:1027C0000A00ADF8060041F61F40ADF808000020F1
:1027D000ADF804008DF80C0001A91348FFF77EFF47
:1027E00001211148FFF708FE012211460E48FFF7AC
:1027F00026FE4FF4A060FFF731F81E208DF8000090
:1028000001208DF803008DF801008DF80200684664
:10281000FEF7ECFF01210448FFF7F4FD05B000BD11
:10282000000C0140140000200008004010B540F2E8
:102830002551974800F099FA01287DD1002095494B
:102840000880934800F04CFB292805D100209249CC
:1028500008809249088014E18D4800F041FB30283F
:1028600005D101208C4908808C49088009E18848FD
:1028700000F036FB312806D1052087490880022068
:1028800086490880FDE0824800F02AFB322806D104
:10289000012081490880032080490880F1E07C48BC
:1028A00000F01EFB332806D102207B49088004205B
:1028B0007A490880E5E0764800F012FB342806D11A
:1028C000022075490880052074490880D9E07048C5
:1028D00000F006FB352806D102206F49088006204B
:1028E0006E490880CDE06A4800F0FAFA362806D131
:1028F000022069490880072068490880C1E06448CF
:1029000000F0EEFA372806D1042063490880082039
:1029100062490880B5E05E4800F0E2FA382819D133
:102920005F480088782802D103205B4908805C4812
:102930000088642807DD00E0A8E0594800881438C2
:10294000574908809DE0022053490880C820544917
:10295000088096E04E4800F0C3FA392817D1514854
:102960000088042802D103204B4908804D48008884
:10297000032805DD4B480088401E4A49088080E056
:1029800004204549088009204649088079E04048EC
:1029900000F0A6FA402809D14348007880F00100F1
:1029A0004149087001203C4908806AE0384800F03D
:1029B00097FA412806D10220374908800A20374972
:1029C00008805EE0324800F08BFA422806D10220EF
:1029D000314908800B203149088052E02C4800F032
:1029E0007FFA432806D106202B4908800D202B4969
:1029F000088046E0264800F073FA442803D10120FD
:102A00002A4908803DE0224800F06AFA452803D1AF
:102A100000202649088034E01D4800F061FA46286D
:102A200003D10120224908802BE0194800F058FA10
:102A3000472803D100201E49088022E0144800F0F6
:102A40004FFA482806D10620134908800E20134962
:102A5000088016E00E4800F043FA492806D1062007
:102A60000D4908800F200D4908800AE0084800F051
:102A700037FA502805D10F48007880F001000D4941
:102A8000087040F22551024800F054F910BD0000D2
:102A900000380140320000202C00002026000020D9
:102AA000280000202A0000202E0000203A000020EC
:102AB0003C0000204B00002010B540F22551934807
:102AC00000F053F901287DD1914908808F4800F02A
:102AD00007FA292805D100208E4908808E490880F0
:102AE0000DE18A4800F0FCF9302805D10120894920
:102AF00008808949088002E1844800F0F1F9312812
:102B000006D1052083490880022083490880F6E029
:102B10007E4800F0E5F9322806D101207D49088081
:102B200003207D490880EAE0784800F0D9F933288D
:102B300006D1022077490880042077490880DEE02A
:102B4000724800F0CDF9342806D10220714908807E
:102B5000052071490880D2E06C4800F0C1F93528A1
:102B600006D102206B49088006206B490880C6E028
:102B7000664800F0B5F9362806D10220654908807C
:102B8000072065490880BAE0604800F0A9F93728B5
:102B900006D104205F49088008205F490880AEE024
:102BA0005A4800F09DF9382819D15C4800887828E7
:102BB00002D103205749088058480088642807DD5F
:102BC000564800E0A0E0008814385449088096E098
:102BD000022050490880C820504908808FE04B48A7
:102BE00000F07EF9392817D14D480088042802D119
:102BF0000320484908804A480088032805DD4848E2
:102C00000088401E4649088079E004204149088038
:102C100009204349088072E03C4800F061F94028EF
:102C200009D14048007880F001003E490870012039
:102C30003849088063E0354800F052F9412806D150
:102C40000220344908800A203349088057E02F4881
:102C500000F046F9422806D102202E4908800B20B8
:102C60002D4908804BE0294800F03AF9432846D026
:102C7000264800F035F9442803D101202A4908806C
:102C80003DE0224800F02CF9452803D100202649D8
:102C9000088034E01D4800F023F9462803D10120C4
:102CA000224908802BE0194800F01AF9472803D17F
:102CB00000201E49088022E0144800F011F948283D
:102CC00006D10620134908800E201349088016E01B
:102CD0000E4800F005F9492806D106200D49088064
:102CE0000F200D4908800AE0084800F0F9F8502844
:102CF00005D10F48007880F001000D49087040F2BE
:102D00002551024800F016F810BD000000480040B0
:102D1000320000202C000020260000202800002087
:102D20002A0000202E0000203A0000203C00002055
:102D30004B00002010B50022002340F66A14A14287
:102D400000D100BF0A1201249440A3B2DC430480E6
:102D500010BD21B1828942F40052828104E082894F
:102D60004DF6FF731A408281704770B50246002409
:102D700000230025002040F66A16B14200D100BFB2
:102D8000C1F3421501F01F03012606FA03F3012DDA
:102D900002D19689334006E0022D02D1168A3340D3
:102DA00001E0968A33400C12012606FA04F41688D4
:102DB000344013B10CB1012000E0002070BDF0B52B
:102DC0000346002400260025002040F66A17B94279
:102DD00000D100BF1846C1F3421401F01F060127BD
:102DE00007FA06F5012C01D10C3004E0022C01D1C8
:102DF000103000E014301AB107682F43076002E07A
:102E00000768AF430760F0BD2DE9F04786B005467F
:102E10000E460024A24600BFA1460027B08900B19B
:102E200000BF2F462C8A4CF6FF700440F088044304
:102E30002C82AC894EF6F3100440B08831890843E7
:102E4000718908430443AC81AC8A4FF6FF400440CB
:102E5000B0890443AC8201A8FFF7ECF81F48874211
:102E600002D1DDF810A001E0DDF80CA0A88900F483
:102E7000004040B10AEBCA0000EB0A10316849007B
:102E8000B0FBF1F807E00AEBCA0000EB0A1031686A
:102E90008900B0FBF1F86420B8FBF0F004012009D0
:102EA000642101FB1089A88900F4004040B1322060
:102EB00000EBC900B0FBF1F000F00700044308E0AC
:102EC000322000EB09106421B0FBF1F000F00F009C
:102ED00004432C8106B0BDE8F087000000380140B3
:102EE00001468888C0F30800704700002DE9F05FB4
:102EF00000F04EF86420FEF720FA0D48008800F03C
:102F0000FAFA80460B4A0C4B00F008FB06460022FA
:102F10000A4B00F003FB044600224FF0804300F010
:102F200065F9824600F0BAFA80B2BDE8F09F000071
:102F3000140000202D431CEBE2361A3F009AE040BB
:102F400008B501210820FFF765F810208DF803006F
:102F50000002ADF8000003208DF8020069460B481E
:102F6000FEF7B4FA28208DF803004FF40050ADF8B6
:102F7000000003208DF8020069460448FEF7A6FA17
:102F80004FF480510148FEF735FB08BD000C0140AD
:102F900010B54FF480510748FEF72EFB2D20FEF7A9
:102FA000D8F94FF480510348FEF724FBFFF7E8FB04
:102FB00010BD0000000C014000BFFEE72DE9F0410C
:102FC00004460A49204600F0F3FC8046084900F018
:102FD000FDFD0746074900F089FC064600F0AAFD02
:102FE00085B22846FEF77CFFBDE8F081000034433F
:102FF0000000FA440000FA4308B5FEF739FBFFF77A
:1030000005F9FEF7F9FCFEF7EFF8FFF799FF09481D
:1030100040238022002100900846FEF781FDFEF744
:103020003BFE05E0FEF768FFFEF7AAF9FEF7C4F8DD
:10303000F8E70000A84B000821F00042A2F160521E
:10304000B2F5801F01F0004328BFD2F17F6C0BD98D
:103050005FEA001C43EAC20242EB507018BF70479F
:1030600028BF20F001007047B2F5801FBCBF184692
:1030700070474FEA410C1CF5001F02D2084600F0D1
:103080006CBE70B500F0F4FA00000089FFF7F6BFDF
:103090004FF00040A0F580007047000010B591EAA5
:1030A000030F48BF83F0004300F13E83841A71EBA5
:1030B000030C05D2121943EB0C03001B61EB0C014E
:1030C000DFF824E14FEA1154A4EB135C1EEA430F2E
:1030D00018BF9EEA445F73D023EA0E03DCF1200E92
:1030E00021EA045143F4801332D322FA0CFE10EB90
:1030F0000E0023FA0CFE41EB0E01CCF1200E03FA78
:103100000EFE10EB0E0051F10001B1F5801FCCF165
:10311000200E32D201EB045112FA0EF2BDE810403B
:1031200058BF7047401C38BF5FEA420218BF704763
:10313000002814BF20F0010041F100014FEA4103D3
:1031400013F5001F38BF7047A1F1C04100F0DEBA8F
:10315000012A43EB0302ACF1200CDCF11F0E32BF5D
:103160004FF0000E23FA0CF310EB030041EB045177
:10317000B4EB115FD0D0A1EB045101F580114908E7
:103180005FEA300001EB04510ED350F1000038BF6C
:1031900012FA0EFE08D1BDE81040C9E7401C38BF46
:1031A0005FEA4202CAD1C3E7BDE810404FEA4103DB
:1031B00013F5001F38BF7047A1F1C04100F0A6BA57
:1031C0009EEA445F08D011EA5E0FBDE8104004BFDC
:1031D00001F0004100207047BDE8104070B500F0DC
:1031E00047FA00BF64FBBE3E0000E0FF2DE9C0418E
:1031F00030B4DFF8A0C23CEA111418BF3CEA131443
:1032000000F0EC8081EA03051CEA111444EAD5744D
:1032100018BF1CEA131500F0C780A4EB05044FF09B
:10322000004545EAC12145EAC32341EA505143EA3A
:10323000525304F17F74994204F500344FEAC020E0
:103240004FEAC22208BF904200F09C804FEA13650B
:103250000FF24016765D4FEA134506FB05F7C7F1FE
:10326000807706FB07F74FEAD737A7FB036876425C
:10327000C8F58038A7FB06CE38BFA8F1010807FBC8
:1032800008E64FF0000EA6FB028CE6FB03CEDCF155
:10329000000CCEF1004E38BFAEF1010EA6FB0C586B
:1032A0004FF000074FF00005E6FB0E87A1FB08C6B4
:1032B000A0FB07CE16EB0E0645F10005E1FB076506
:1032C00015F1E04E7EBFA4F580345FEA46066D41FD
:1032D00016F1800745F100054FEA17274FEA066609
:1032E00047EA0567A6F1DE46B6F1805F4FEA15258D
:1032F0001FD9384624F0010C05EBC471BCF1FE6FF8
:1033000001EB0C1102D8F0BCBDE8008124425CBF87
:1033100001F5801E9EEAC47F02D4F0BCBDE80081A6
:10332000244238D4F0BCA1F1C041BDE8004100F016
:10333000EDB94FEAD22242EA43524FEAD323A7FB28
:1033400002864FEAD02040EA415007FB03661EEA9E
:103350000E0F4FEAD12105FB026658BFA6EB0056BF
:10336000B6EB00564FEA520E4EEAC37E18EB0E0E35
:1033700056EB530EBDD518EB02085E417F1C55F18C
:103380000005B6E74FF480154FF000074FF0000638
:103390004FF00008ADE7F0BC4FF0000001F1C04174
:1033A00001F00041BDE8008111EA0C1F0CEA131581
:1033B00000D00CE013EA0C1F00F025804FF0000055
:1033C000F0BC81EA030101F00041BDE80081F0BCDE
:1033D000BDE8004181EA030100F098B9F0BCBDE806
:1033E000004170B500F044F9097EFC3E00F007B8DA
:1033F00081EA03014FF0000001F00041704781EACB
:10340000030100F083B9F0BCBDE800414FF00000BB
:1034100021497047FFFDFBF9F7F5F4F2F0EEEDEB13
:10342000E9E8E6E4E3E1E0DEDDDBDAD8D7D5D4D3C2
:10343000D1D0CFCDCCCBCAC8C7C6C5C4C2C1C0BF0E
:10344000BEBDBCBBBAB9B8B7B6B5B4B3B2B1B0AF14
:10345000AEADACABAAA9A8A8A7A6A5A4A3A3A2A1F8
:10346000A09F9F9E9D9C9C9B9A99999897979695B3
:1034700095949393929191908F8F8E8E8D8C8C8B4F
:103480008B8A8989888887878685858484838382D7
:10349000828181800000FF070000F87F4FEA11530E
:1034A000A3F58063D3F11E03A8BFD3F1200C08DB82
:1034B0004FF0004242EAC12252EA505232FA03F07F
:1034C000704709420BD4102BC4BF0020704703F58E
:1034D000787CBCF1FF3F05D04FF0FF3070474FF0D4
:1034E0000000704770B500F0C3F800BF4992248017
:1034F00000207047F0E7B0FA80F310FA03F10AD029
:10350000C3F11D0303F580634FEA41504FEA0352B4
:1035100002EBD12170474FF000007047DFF848C13F
:1035200070B51CEA111E1EBF1CEA13159EEA0C0F93
:1035300095EA0C0F00F06F8081EA030423EA4C1334
:103540004EEAD47E21EA4C1141F4801143F48013F9
:10355000AE44A1FB024CA0FB0365AEF17F7E3619A1
:1035600055EB0C05A1FB034C4CF10003A0FB021C26
:1035700016EB0C06654153F10003094218BF46F0F3
:10358000010613F4007F0BD14FEA03314FEA0530F7
:10359000340341EA155140EA16506FF003020AE085
:1035A0004FEAC3214FEAC520F40241EA555140EAEF
:1035B00056506FF0020202EB2E4201EB025585EAF3
:1035C000CE710AD05FEA440C18BF24F0004450F1D9
:1035D000000041F1000120EAD47040F2FE7C624517
:1035E00000D270BDA84214BF4FF080444FF0404459
:1035F000002E08BF0024BEF1806FA8BFA1F1C0411A
:10360000BDE8704080F282804FF0000001F1C041BF
:1036100001F0004170479EEA0C0F0CEA131518BF29
:1036200095EA0C0F06D04FF0000081EA030E0EF071
:10363000004170BD00F01CF88900013E00F007B8A1
:1036400000F009B84FEA430C5FEA5C5C08D081EAFD
:10365000030100F05BB84FEA410C5FEA5C5CF6D115
:103660004FF00000014970470000FF070000F87F9D
:103670000EF1020E2EF0030E5EF8046B364205D4F6
:10368000012A43EB030515F5001F12D8012841EB71
:10369000010C1CF5001F0CD80ED14FEAD17C15F59A
:1036A000001F0CEB4C0C0CF1020C08BF4CEBD37C54
:1036B00004E04FF0080C01E04FEAD37C0CEB4C0522
:1036C00026FA05F606F00706B6F1040C06D20EEB54
:1036D000860CBDE870404CF0010C6047DFE80CF050
:1036E000090B02024FF000414FF00000A1F500214C
:1036F00070BD19461046012851EB010418BFD4F5DE
:10370000001484BF002001F0004170BD0808A0F53E
:1037100000114FEA3101704710B591EA030F48BF1D
:1037200083F000433FF5C2AC841A71EB030C07D25F
:1037300012198CF0004C43EB0C03001B61EB0C01E5
:10374000DFF8A4E14FEA1154A4EB135C1EEA430F27
:1037500018BF9EEA445F00F0B08023EA6E03524235
:1037600021EA0451C3EB6E0338BF5B1EDCF1200E6F
:1037700025D322FA0CFE10EB0E0043FA0CFE41EBAF
:103780000E01CCF1200E03FA0EFE10EB0E0051F1EB
:103790000001CCF1200E29D412FA0EF201EB0451F3
:1037A000BDE8104058BF7047401C1CBFB2F1004F2D
:1037B000704700280CBF491C20F00100704712EB35
:1037C000020E43EB030218BF4FF0010E4EEA420215
:1037D000ACF1200CDCF11E0E54D943FA0CFE10EBB8
:1037E0000E0051F1FF31CCF11E0ED5D50EF1010EB8
:1037F00012FA0EFE404141EB010101EB445C5FEA2D
:103800005C5C10D910EBDE7001EB045138BFBEF1E7
:10381000004FBDE8104018BF704700280CBF491C7E
:1038200020F00100704730D24FEAD42C11F500117E
:1038300024F400641BD0B1FA81F20B3AA41AA41E3E
:10384000D2F12003914030FA03F31943904001EB89
:10385000CC71002C01EB0451BDE81040A8BF7047AB
:1038600001F1C0414FF0000001F000417047B0FA93
:1038700080F310FA03F100D110BDE41A173C48059B
:10388000C90AE4E701EB045110BD491001EB0451F2
:10389000BDE810404FEA300002E04FF000017047F1
:1038A0004A0008BF0042F8D0B2F5001F28BF704799
:1038B00001F000414FF0000070479EEA445F07D0DE
:1038C00011EA5E0FBDE8104004BF002100207047E0
:1038D000BDE8104070B5FFF7CBFE00BF40DFF63EFD
:1038E00083F00041104670470000E0FF90EA010FAE
:1038F00048BF81F0004100F14682421A3CBF801A65
:1039000089184FEAD0524FF07F4C1CEA410FA2EBCE
:10391000D15318BF9CEA026F00F03B804FF0004C7F
:103920004CEA00204CEA012121FA03FC10EB0C0CBC
:103930001ED202F1FF325FEA1C2040EBC25038BFBA
:1039400070471CF07F0F4FEA400C18BFBCF17F4F4F
:1039500038BF7047C3F12003994008BF20F0010031
:10396000BCF17F4F38BF7047A0F1C04000F0F5B9FF
:103970004FEA3C00000A40EBC25028BF1CF0FF0F8A
:103980004FEA400CE6D018BFBCF17F4F38BF7047FC
:10399000EAE79CEA026F05D010EA5C0F08BF00F06E
:1039A0000040704710B500F092F900BF64FBBE3EC6
:1039B0004FF47F0C1CEAD0121EBF1CEAD11392EA0E
:1039C0000C0F93EA0C0F00F0858090EA010F48BFBE
:1039D00042F4807240F4000C41F400002CF07F416E
:1039E00020F07F4000B58142A2EB03020FF2081CD9
:1039F000ACEB504EC0F100009EF800E04FEA4E0ED6
:103A000000FB0EFC38BF49004FEA2C1C02F5FA02FD
:103A10000CFB0EF34FEACE1E4FEA112C4FEAC121E8
:103A20000EEB635E42EB22420EFB0CFC4FEA1C5392
:103A300000FB03114FEA112C4FEA01310EFB0CFC85
:103A40004FEADC4C00FB0C11C14228BF09184CEBBB
:103A500003335DF804EB10EB410143EBC250B2F5C8
:103A60007C0F38BF704729D512F0F00F1CBF00F152
:103A7000C04000F0004070470081828384858687C3
:103A800088898B8C8D8E8F919293959697999A9C1D
:103A90009D9FA0A2A3A5A7A8AAACAEB0B2B3B5B78C
:103AA000B9BCBEC0C2C5C7C9CCCED1D4D7D9DCDF62
:103AB000E2E6E9ECF0F3F7FAFE0000004FEA400C12
:103AC0000CF1807CBCF17E4F28BF7047B0F1C04044
:103AD00000F043B990EA010F0CEAD11348BF42F459
:103AE0008072624538BF634507D213F47F0F16D04A
:103AF00080EA010000F00040704710B500F0E7F8E0
:103B0000097EFC3E00F005B880EA010000F00040AC
:103B1000704780EA010000F0004000F01EB912F486
:103B20007F0F04BF0248704780EA010000F015B91A
:103B30000000C07FC10DD1F19E0206DB4FEA0023D9
:103B400043F0004323FA02F07047004207D54FEAE2
:103B50004001B1F1FE4F02D24FF00000704710B5A6
:103B600000F0B5F849922480002070476FEA2000E9
:103B70007047000010F0004148BF4042B0FA80F3A7
:103B800010FA03F2C3F19D030BD051EAC35101EBCC
:103B90001220530638BF704700F1010008BF20F023
:103BA00001007047B0FA80F310FA03F2C3F19D03ED
:103BB0000AD0D90501EB1220530638BF704700F137
:103BC000010008BF20F00100704700004FF47F0C97
:103BD0001CEAD0121EBF1CEAD11392EA0C0F93EA22
:103BE0000C0F00F0478090EA010F48BF42F480724A
:103BF0004FF0004C4CEA00204CEA012102EB03029A
:103C0000A0FB0113A2F50002002918BF43F0010335
:103C10005B0028BF4FEA330342EB22425FEA132CDA
:103C20004CEBC2502EBFBCEB436FB2F57C0F70471C
:103C30004FEA036CBCF1004F08BF20F00100B2F561
:103C40007C0F38BF70470BD582F0FF0212F5803F22
:103C5000C8BF704700F1C040D8BF00F000407047B7
:103C600000F5000C5FEA4C0C48BF7047B0F1C04053
:103C700000F073B890EA010F0CEAD11348BF42F488
:103C80008072624538BF634504D280EA010000F0CB
:103C90000040704710B500F01AF800BF8900013EDF
:103CA00000F007B800F009B85FEA410C5FEA1C6C4D
:103CB00008D080EA010000F050B85FEA400C5FEAEB
:103CC0001C6CF6D14FF00040A0F5800070470EF15B
:103CD000020E2EF0030E5EF8044B244204D44FEA89
:103CE0004102B2F17F4F11D84FEA4003B3F17F4F49
:103CF0000CD80ED14FEAD07CB2F17F4F0CEB4C0CBC
:103D00000CF1020C08BF4CEBD17C04E04FF0080C26
:103D100001E04FEAD17C0CEB4C0324FA03F404F0ED
:103D20000704B4F1040C06D20EEB840CBDE810407D
:103D30004CF0010C6047DFE80CF0070802024FF07E
:103D40000040A0F5800010BD0846420018BFD2F127
:103D5000807288BF00F0004010BDFF2141EAD050C2
:103D6000C005704780F0004090EA010F7FF5C5ADB7
:103D700081F0004100F007B890EA010F48BF81F0E0
:103D800000413FF5BAAD421A04D882F00042A0EBE0
:103D9000020011444FEAD0524FF07F4C1CEA410F11
:103DA000A2EBD15318BF9CEA026F4AD04FF0004CEF
:103DB0004CEA00204CEA012121FA03FCB0EB0C0C88
:103DC0000FD412F0FE0F36D05FEA4C001DD5001262
:103DD00040EBC25038BF70471CF03F0F18BF704710
:103DE0000BE0A2F101025FEA1C2040EBC25038BF99
:103DF00070471CF07F0F18BF7047C3F12003994034
:103E000014BF401E20F00100704780084FEA1223C3
:103E100008BF7047B0FA80FCA2EB0C02CCF1280C72
:103E200060FA0CF093EA122F04BF00EBC250704707
:103E30004FEAC3707047130A5FEADC1008BF70478F
:103E4000F6E79CEA026F04D010EA5C0F08BF00207E
:103E5000704710B5FFF73BFF40DFF63E81F00040B2
:103E6000704700000000000000000000000000009B
:103E70000000000000F800000000000000333000E7
:103E8000000000160E00160E0000000000000000EA
:103E9000000040C07840C0784000043F04043F0464
:103EA0000400007088FC08300000001820FF211E6C
:103EB0000000F008F000E018000000211C031E21A3
:103EC0001E0000F00888700000001E21232419271E
:103ED0002110000000160E0000000000000000008D
:103EE0000000000000E01804020000000007182095
:103EF000400000020418E000000000402018070005
:103F00000000404080F0804040000202010F0102AA
:103F10000200000000F0000000000101011F01018B
:103F20000100000000000000000000B07000000070
:103F3000000000000000000000000001010101017C
:103F4000010100000000000000000030300000000F
:103F500000000000000080601804006018060100E6
:103F6000000000E010080810E000000F10202010F2
:103F70000F00001010F8000000000020203F20205B
:103F800000000070080808887000003028242221F2
:103F900030000030088888483000001820202011A8
:103FA0000E000000C02010F8000000070424243F89
:103FB000240000F808888808080000192120201132
:103FC0000E0000E0108888180000000F112020115A
:103FD0000E0000380808C83808000000003F000044
:103FE00000000070880808887000001C222121222F
:103FF0001C0000E010080810E0000000312222112F
:104000000F00000000C0C0000000000000303000C1
:104010000000000000C0C0000000000080B0700080
:104020000000000080402010080000010204081079
:104030002000404040404040400004040404040488
:104040000400000810204080000000201008040236
:104050000100007048080808F00000000030360138
:104060000000C030C828E810E000071827242314F7
:104070000B000000C038E0000000203C23020227B3
:10408000382008F8888888700000203F2020201100
:104090000E00C0300808080838000718202020103B
:1040A000080008F808080810E000203F2020201031
:1040B0000F0008F88888E8081000203F20202320FF
:1040C000180008F88888E8081000203F2000030046
:1040D0000000C03008080838000007182020221E01
:1040E000020008F808000008F808203F210101211B
:1040F0003F20000808F8080800000020203F20208A
:10410000000000000808F8080800C08080807F00D8
:10411000000008F888C028180800203F2001263831
:10412000200008F8080000000000203F2020202088
:10413000300008F8F800F8F80800203F003F003F82
:10414000200008F830C00008F808203F20000718B9
:104150003F00E01008080810E0000F102020201099
:104160000F0008F808080808F000203F21010101AD
:104170000000E01008080810E0000F182424385050
:104180004F0008F8888888887000203F2000030CC2
:1041900030200070880808083800003820212122CB
:1041A0001C00180808F8080818000000203F20002C
:1041B000000008F808000008F808001F2020202050
:1041C0001F000878880000C83808000007380E0172
:1041D0000000F80800F80008F800033C0700073C5E
:1041E0000300081868808068180820302C03032C0E
:1041F00030200838C800C83808000000203F2000E0
:10420000000010080808C83808002038262120209F
:104210001800000000FE020202000000007F404083
:104220004000000C30C00000000000000001063813
:10423000C00000020202FE000000004040407F007B
:1042400000000020100804081020000000000000FA
:10425000000000000000000000008080808080805E
:104260008080000204080000000000000000000040
:10427000000000008080808000000019242222229B
:104280003F2008F8008080000000003F112020112E
:104290000E000000008080800000000E1120202011
:1042A0001100000000808088F800000E112020100E
:1042B0003F200000808080800000001F22222222F8
:1042C0001300008080F0888888180020203F20207C
:1042D00000000000808080808000006B94949493A4
:1042E000600008F8008080800000203F210000204E
:1042F0003F2000809898000000000020203F2020F0
:104300000000000000809898000000C08080807F3E
:10431000000008F8000080808000203F24022D303B
:104320002000000808F8000000000020203F2020A6
:1043300000008080808080808000203F20003F201F
:10434000003F008080008080000000203F2100208E
:104350003F200000808080800000001F202020205F
:104360001F00808000808000000080FFA1202011BD
:104370000E000000008080808000000E112020A030
:10438000FF80808080008080800020203F212000EE
:1043900001000000808080808000003324242424D9
:1043A0001900008080E0808000000000001F2020B5
:1043B00000008080000000808000001F202020106E
:1043C0003F20808080000080808000010E30080641
:1043D000010080800080008080800F300C030C3052
:1043E0000F0000808000808080000020312E0E3180
:1043F0002000808080000080808080818E70180680
:10440000010000808080808080000021302C2221EB
:10441000300000000000807C020200000000003F2D
:10442000404000000000FF00000000000000FF000E
:1044300000000002027C800000000040403F0000BD
:10444000000000804040800000800000000000016B
:1044500001000000000000000000002F000000002C
:104460000700070000147F147F1400242A7F2A12FB
:1044700000231308646200364955225000000007EB
:10448000000000001C224100000041221C0000141A
:10449000083E08140008083E0808000000A060005C
:1044A00000080808080800006060000000201008EC
:1044B0000402003E5149453E0000427F4000004258
:1044C00061514946002141454B31001814127F10BB
:1044D000002745454539003C4A49493000017109EA
:1044E000050300364949493600064949291E00009E
:1044F0003636000000005636000000081422410045
:104500000014141414140000412214080002015174
:104510000906003E4955592E007C1211127C007F7D
:1045200049494936003E41414122007F4141221C18
:10453000007F49494941007F09090901003E41497D
:10454000497A007F0808087F0000417F4100002071
:1045500040413F01007F08142241007F404040401D
:10456000007F020C027F007F0408107F003E414163
:10457000413E007F09090906003E4151215E007F4E
:10458000091929460046494949310001017F0101C5
:10459000003F4040403F001F2040201F003F403868
:1045A000403F0063140814630007087008070061A7
:1045B0005149454300007F4141000002040810209A
:1045C000000041417F00000402010204004040401D
:1045D0004040000001020400002054545478007F41
:1045E0004844443800384444442000384444487F18
:1045F00000385454541800087E0901020018A4A47D
:10460000A47C007F080404780000447D4000004042
:1046100080847D00007F102844000000417F40001E
:10462000007C04180478007C0804047800384444B2
:10463000443800FC242424180018242418FC007C8E
:104640000804040800485454542000043F44402007
:10465000003C4040207C001C2040201C003C40309E
:10466000403C004428102844001CA0A0A07C00442A
:1046700064544C440000087F41000000007F0000AB
:104680000000417F0800000804081008EFBC8C00FF
:10469000000000000000000000000000000000001A
:1046A000000058380000000000000000000000007A
:1046B000E380820000000000000000000000000015
:1046C0000000000000001824241800000000000072
:1046D00000000000E4BDA000008060F80740201842
:1046E0000F08C80808281800010000FF00100C037C
:1046F00040807F0001061800E5A5BD001010F01FE6
:1047000010F000808282E2928A86800040221508A2
:104710001661000040807F0000000000E4B89600B1
:10472000202020FE2020FF202020FF20202020000D
:104730000000007F40404744444447404040000060
:10474000E7958C00000000FE929292FE929292FEFB
:104750000000000008080484621E010001FE02043B
:104760000408080000000000FF01010131090909E7
:1047700009897101010101FFFF808080808080969E
:1047800081808080808080FFFF01818181FD89910F
:10479000A1C1FD81818101FFFF808080809F88848D
:1047A00082819F80808080FF000000000000000068
:1047B00000000000000000000000000000000000F9
:1047C00000000000000000000000000000000000E9
:1047D00000000000000000000000000000000000D9
:1047E00000000000000000000000000000000000C9
:1047F00000000000000000000000000000000000B9
:1048000000000000000000000000000000000000A8
:104810000000000000000000000000000000000098
:104820000000000000000000000000000000000088
:104830000000000000000000000000000000000078
:104840000000000000000000000000000000000068
:104850000000000000000000000000000000000058
:104860000000000000000000000000000000000048
:104870000000000000000000000000000000000038
:104880000000000000000000000000000000000028
:104890000000000000000000000000000000000018
:1048A0000000000000000000000000000000000008
:1048B00000000000000000000000000000000000F8
:1048C00000000000000000000000000000000000E8
:1048D0000000000000008080808080808000000058
:1048E00000000000000000000000000000000000C8
:1048F00000000000000000000000000000000000B8
:1049000000000000000000000000000000000000A7
:104910000000000000000000000000000000000097
:104920000000000000000000000000000000000087
:104930000000000000000000000000000000000077
:10494000000000000000000000000000000086C61B
:10495000C6C7C7E3E3E3E3E3E1E1E3E7C7C78706ED
:104960000000000000000000000000000000000047
:104970000000000000000010181C1C1E0E06078717
:1049800083838707070706060E1E1C1C1C180000E1
:104990000000000000000000000000000000000017
:1049A0000000000000000000000000000000000007
:1049B00000000000000000000000000000000000F7
:1049C000000000000000000000000000000F0F1FAA
:1049D0001F3F3F383830303038383D3F1F1F1F0FE2
:1049E00000000000000000000000000000000000C7
:1049F00000000000000000083C7E7EFEFFEFC7C301
:104A0000C3C3C3C3E7FFFFFF7E7E3C180000000066
:104A10000000000000000000000000000000000096
:104A20000000000000000000000000000000000086
:104A300000000000103838387C7C7C7C7C7C6C6CFE
:104A40006C6C6C6C6C6C6C6C7C7C7C78383830007A
:104A50000000000000000000000000C0C0C0C0C096
:104A60000000000000000080808080000000000046
:104A70000000C0C0C0C080000000000000000101B4
:104A80000101010100008080C0C0C0C0C0C0C0C022
:104A9000C0C0C0C0C0C0C080808000000000000056
:104AA0000000000000000000000000000000000006
:104AB00000000000000000000000000000000000F6
:104AC00000000000000000000000000000000000E6
:104AD0000000000000000000000000070F1F1F1F63
:104AE0001C181818181C1F0F0F1F1F3E3838383895
:104AF0003838393F1F1F0F0F04000000000000006E
:104B0000000000000307070707070706060E0E0E42
:104B10000E0E0E0E0E0F0F07070703030000000016
:104B20000000000000000000000000000000000085
:104B30000000000000000000000000000000000075
:104B40000000000000000000000000000000000065
:104B50000000000000000000000000000000000055
:104B60000000000000000000000000000000000045
:104B70000000000000000000000000000000000035
:104B80000000000000000000000000000000000025
:104B90000000000000000000000000000000000015
:104BA0000000000000000000000000000000000005
:104BB00000000000000000000000000000000000F5
:104BC00000000000000000000000000000000000E5
:104BD00000000000000000000000000000000000D5
:104BE00000000000000000000000000000000000C5
:104BF00000000000000000000000000000000000B5
:104C000000000000000000000000000000000000A4
:104C10000000000000000000000000000000000094
:104C20000000000000000000000000000000000084
:104C30000000000000000000000000000000000074
:104C4000000000000080C0E0F0F8F8FCFCFCFCFC78
:104C5000FCF8F0F0E0800000000000000000000020
:104C60000000000000000000000000000000000044
:104C700000000000000000000080C0E0F0F8F8FC38
:104C8000FCFCFCFCF8F8F0F0E08000000000000004
:104C90000000000000000000000000000000000014
:104CA0000000000000000000000000000000000004
:104CB00000000000000000000000000000000000F4
:104CC0000000C0F8FEFFFFFFFFFFFFFFFFFFFFFF39
:104CD000FFFFFFFFFFFFFFFCF0800000000000006F
:104CE00000000000000000000000000000000000C4
:104CF000000000000000C0F8FEFFFFFFFFFFFFFF05
:104D0000FFFFFFFFFFFFFFFFFFFFFFFCF080000042
:104D10000000000000000000000000000000000093
:104D20000000000000000000000000000000000083
:104D30000000000000000000000000000000000073
:104D400000FCFFFFFFFFFFFFFFFFFFFFFFFFFFFF75
:104D5000FFFFFFFFFFFFFFFFFFFF0000000000005D
:104D60000000000000000000000000000000000043
:104D70000000000000FCFFFFFFFFFFFFFFFFFFFF41
:104D8000FFFFFFFFFFFFFFFFFFFFFFFFFFFF000031
:104D90000000000000000000000000000000000013
:104DA0000000000000000000000000000000000003
:104DB00000000000000000000000000000000000F3
:104DC000003FFFFFFFFFFFFFFFFFFFFFFFFFFFFFB2
:104DD000FFFFFFFFFFFFFFFFFFFF000000000000DD
:104DE00000000000000000000000000000000000C3
:104DF00000000000003FFFFFFFFFFFFFFFFFFFFF7E
:104E0000FFFFFFFFFFFFFFFFFFFFFFFFFFFF0000B0
:104E10000000000000000000000000000000000092
:104E20000000000000000000000000000000000082
:104E30000000000000000000000000000000000072
:104E40000000031F7FFFFFFFFFFFFFFFFFFFFFFFCC
:104E5000FFFFFFFFFFFFFF3F0F010000000000000A
:104E60000000000000000000000000000000000042
:104E7000000000000000031F7FFFFFFFFFFFFFFF98
:104E8000FFFFFFFFFFFFFFFFFFFFFF3F0F010000DE
:104E90000000000000000000000000000000000012
:104EA0000000000000000000000000000000000002
:104EB00000000000000000000000000000000000F2
:104EC00000000000000103070F1F1F3F3F3F3F3F4F
:104ED0003F1F1F0F0703000000000000000000003C
:104EE00000000000000000000000000000000000C2
:104EF0000000000000000000000103070F1F1F3F1B
:104F00003F3F3F3F3F1F1F0F07030000000000000F
:104F10000000000000000000000000000000000091
:104F20000000000000000000000000000000000081
:104F30000000000000000000000000000000000071
:104F40000000000000000000000000000000000061
:104F50000000000000000000000000000000000051
:104F60000000000000000000000000000000000041
:104F70000000000000000000000000000000000031
:104F80000000000000000000000000000000000021
:104F90000000000000000000000000000000000011
:104FA0000000000000000000000000000000000001
:104FB00000000000000000000000000000000000F1
:104FC00000000000000000000000000000000000E1
:104FD00000000000000000000000000000000000D1
:104FE00000000000000000000000000000000000C1
:104FF00000000000000000000000000000000000B1
:1050000000000000000000000000000000000000A0
:105010000000000000000000000000000000000090
:105020000000000000000000000000000000000080
:105030003070F0F0F0E0E0E0C0C080808000000060
:105040000000000000000000000000000000000060
:105050000000000000000000000000000000000050
:105060000000000000000000000000000000000040
:105070000000000000000000000000000000000030
:105080000000000000000000000000000000000020
:1050900000808080C0C0E0E0F0F070787878300068
:1050A0000000000000000000000000000000000000
:1050B00000000000000001010303030707070F0EB3
:1050C0001E1E1C3C3C787878F0F0E0E0E0C0C0C0E8
:1050D00080800000000000000000000000000000D0
:1050E00000000000000000000000000000000000C0
:1050F00000000000000000000000000000000000B0
:1051000000C0E0E0F0F0F0F8F8F83C1C1E1E0F0FB5
:10511000070707070301010101000000000000006C
:10512000000000000000000000000000000000007F
:10513000000000008080C0C0C0C0E0E0E0E0F0708F
:1051400070787838383C3C1C1C1E1F1F0F0F0F0F47
:10515000070703000000000000000000000000003E
:10516000000000000000000000000000000000003F
:10517000000000000000000000000000000000002F
:105180000000010303030707070F0F0F0F1E1E1E6A
:105190003C3C3C787878F0F0F0E0E0E0E0C0800063
:1051A00000000000000000000000000000000000FF
:1051B00000008081030303F36101010180E03000FE
:1051C000000080C0C00000000000000000000000DF
:1051D000000000000000000000000000103878F817
:1051E000F8F878383838383838383838383838387F
:1051F0003878F8F87838300000000000000000002F
:105200000000000000000000000000C0E00000807E
:10521000F03000000080F07000000101E1C10000EA
:10522000000000000000000000000000000000007E
:1052300000070F0100103F0F0000007C1F0300005B
:10524000603C0F03000000000000000000000000B0
:10525000000000000000000000000000000000004E
:105260000F3FFCF0C0C0C0C0C0C0C0C0C0C0C0C004
:10527000E0FC7F0F000000000000000000000000C4
:105280000000000000000000000000070300003FD5
:10529000070000003C1F000000103C1F0100000040
:1052A00000000000000000000000000000000000FE
:1052B00000000000000000000000000000000000EE
:1052C00000000000000000000000000000000000DE
:1052D00000000000000000000000000000000000CE
:1052E00000000000000000000000000000000000BE
:1052F00000000000000000000000000000000000AE
:10530000000000000000000000000000000000009D
:10531000000000000000000000000000000000008D
:10532000000000000000000000000000000000007D
:10533000000000000000000000000000000000006D
:10534000000000000000000000000000000000005D
:10535000000000000000000000000000000000004D
:10536000000000000000000000000000000000003D
:10537000000000000000000000000000000000002D
:10538000000000000000000000000000000000001D
:10539000000000000000000000000000000000000D
:1053A00000000000000000000000000000000000FD
:1053B00000000000000000000000000000000000ED
:1053C00000000000000000000000000000000000DD
:1053D00000000000000000000000000000000000CD
:1053E00000000000000000000000000000000000BD
:1053F00000000000000000000000000000000000AD
:10540000000000000000000000000000000000009C
:10541000000000000000000000000000000000008C
:10542000000000000000000000000000000000C0BC
:10543000F838383060E0C080000000000000000054
:10544000000000000000000000000000000000005C
:10545000000000000000000000000000000000004C
:10546000000000000000000000000000000000003C
:10547000000000000000000000000000000000002C
:10548000000000000000000000000000000000001C
:1054900000000000000080C0E07030387CF0800028
:1054A0000000000000000000000000000000FCFF01
:1054B0008700000000000103070E0C183870E0C0E0
:1054C000800000000000000000000000000000005C
:1054D00000000000000000000000000000000000CC
:1054E00000000000000000000000000000000000BC
:1054F00000000000000000000000000000000000AC
:105500000000000000000000000000000080C0E07B
:1055100070381C0E060703010000000000FFFF307A
:105520000000000000000000000000000000000774
:105530001F3C70E0C08080000000000000000001FF
:105540000103070E1C387060C0C08000000000001E
:10555000000000000000000000000000000000004B
:10556000000000000000000080C0C000000000003B
:10557000000000000000000000000000000000002B
:1055800000000080C0E06030381C0E0703010000FE
:105590000000000000008080C0C060381C0F0300C5
:1055A00000000000000000000000000000000000FB
:1055B000000000000001018303070606068C8C0C26
:1055C0000C0C18181818181818191B1F1E1C181066
:1055D00000000000000000000000000000FEFE0EC1
:1055E0001C38706070180E0703010103061C383068
:1055F000381C0EFFFF00000000000000000018181B
:105600001C1E1F1B191818181898980C0C0C0C0C41
:105610008C0606060703038101000000000000005D
:10562000000000000000000000000000000000007A
:105630000000000000101E070000C0701C030000E6
:10564000000000F03E00000000000000000000002C
:1056500000000000000000000000000000FFFF80CC
:10566000000000000000000000000000000000003A
:10567000000080FFFF0000000000000000000000AC
:1056800000000000000000180E0300000000380FAA
:105690000100000000003F030000000000000000C7
:1056A00000000000000000000000000000000000FA
:1056B00000000000000000000000000000000000EA
:1056C00000000000000000000000000000000000DA
:1056D00000000000000000000000000000000303C4
:1056E000030303030303030303030303030303038A
:1056F000030303030100000000000000000000009D
:105700000000000000000000000000000000000099
:105710000000000000000000000000000000000089
:105720000000000000000000000000000000000079
:105730000000000000000000000000000000000069
:105740000000000000000000000000000000000059
:105750000000000000000000000000000000000049
:105760000000000000000000000000000000000039
:105770000000000000000000000000000000000029
:105780000000000000000000000000000000000019
:105790000000000000000000000000000000000009
:1057A00000000000000000000000000000000000F9
:1057B00000000000000000000000000000000000E9
:1057C00000000000000000000000000000000000D9
:1057D00000000000000000000000000000000000C9
:1057E00000000000000000000000000000000000B9
:1057F00000000000000000000000000000000000A9
:105800000000000000000000000000000000000098
:105810000000000000000000000000000000000088
:105820000000000000000000000000000000000078
:105830000000000000000000000000000000000068
:105840000000000000000000000000000000000058
:105850000000000000000000000000000000000048
:105860000000000000000000000000000000000038
:105870000000000000000000000000000000000028
:105880000000000000000000000000000000000018
:105890000000000000000000000000000000000008
:1058A0000000000000000000000000000000008078
:1058B0008080C0C0C0C0C0C0C0C0C0C0C0C0C0C068
:1058C000E0E0E0E0E0E0E0E0E0E0E0E0E0E0F0F0B8
:1058D000F0F02000000000000000000000000000C8
:1058E00000000000000000000000000000000000B8
:1058F0000000000000000000000008181858F8F828
:10590000F8F8F8F8F8F8F8F8F8F8F8F8F8F8F8F817
:10591000F8F8F8F8F8F8F0F0F0F0F0F0F0F0F0F057
:10592000F0F0F00000000000000000000080F3F341
:10593000FBFBFBFBFBFFFFFFFFFFFFFFFFFFFFFF8B
:10594000FFFFFFFF7D7D7D3D3D3D3D3D3D1D1F1F1B
:105950001F1F1E0E0E0C0C000000000000000000B7
:105960000000000000000000000000000000000037
:105970000000000000000000000000003C7EFFFF6F
:10598000FFFFFFFFFFFFFFFFFFFFFFFFFFFFFFFF27
:10599000FFFFFFFFFFFDFDF9F9F9F9F9F9F9F1F161
:1059A000F170300000000000000000000001010064
:1059B000113F3F3F1F1F1F1F1F1F1F1F0F0F0F0FE5
:1059C0000F0F0F0F0F0F0707070707070707070737
:1059D00003030303030000000000808080808080B8
:1059E00080808080808080808080808080808080B7
:1059F00080808080808000000000000000000000A7
:105A00000000000000000000000000000000000096
:105A10000000000000000000000000000000000086
:105A20000000000000000000000000000000000076
:105A30000000000000000000000000000000000066
:105A40000000000000000000000000000000000056
:105A500000000000000000000000FFFF0100000047
:105A60000000000000000000000000000000000036
:105A70000000000081FFFF000000000000000000A7
:105A80000000000000000000000000000000000016
:105A90000000000000000000000000000000000006
:105AA00000000000000000000000000000000000F6
:105AB00000000000000000000000000000000000E6
:105AC00000000000000000000000000000000000D6
:105AD00000000000000000000000010101010101C0
